{
  "_format": "hh-sol-artifact-1",
  "contractName": "DogeVerse",
  "sourceName": "contracts/DogeVerse.sol",
  "abi": [
    {
      "inputs": [
        {
          "internalType": "string",
          "name": "_name",
          "type": "string"
        },
        {
          "internalType": "string",
          "name": "_symbol",
          "type": "string"
        },
        {
          "internalType": "string",
          "name": "_initBaseURI",
          "type": "string"
        },
        {
          "internalType": "string",
          "name": "_initNotRevealedUri",
          "type": "string"
        }
      ],
      "stateMutability": "nonpayable",
      "type": "constructor"
    },
    {
      "anonymous": false,
      "inputs": [
        {
          "indexed": true,
          "internalType": "address",
          "name": "owner",
          "type": "address"
        },
        {
          "indexed": true,
          "internalType": "address",
          "name": "approved",
          "type": "address"
        },
        {
          "indexed": true,
          "internalType": "uint256",
          "name": "tokenId",
          "type": "uint256"
        }
      ],
      "name": "Approval",
      "type": "event"
    },
    {
      "anonymous": false,
      "inputs": [
        {
          "indexed": true,
          "internalType": "address",
          "name": "owner",
          "type": "address"
        },
        {
          "indexed": true,
          "internalType": "address",
          "name": "operator",
          "type": "address"
        },
        {
          "indexed": false,
          "internalType": "bool",
          "name": "approved",
          "type": "bool"
        }
      ],
      "name": "ApprovalForAll",
      "type": "event"
    },
    {
      "anonymous": false,
      "inputs": [
        {
          "indexed": true,
          "internalType": "address",
          "name": "previousOwner",
          "type": "address"
        },
        {
          "indexed": true,
          "internalType": "address",
          "name": "newOwner",
          "type": "address"
        }
      ],
      "name": "OwnershipTransferred",
      "type": "event"
    },
    {
      "anonymous": false,
      "inputs": [
        {
          "indexed": true,
          "internalType": "address",
          "name": "from",
          "type": "address"
        },
        {
          "indexed": true,
          "internalType": "address",
          "name": "to",
          "type": "address"
        },
        {
          "indexed": true,
          "internalType": "uint256",
          "name": "tokenId",
          "type": "uint256"
        }
      ],
      "name": "Transfer",
      "type": "event"
    },
    {
      "inputs": [
        {
          "internalType": "address",
          "name": "to",
          "type": "address"
        },
        {
          "internalType": "uint256",
          "name": "tokenId",
          "type": "uint256"
        }
      ],
      "name": "approve",
      "outputs": [],
      "stateMutability": "nonpayable",
      "type": "function"
    },
    {
      "inputs": [
        {
          "internalType": "address",
          "name": "owner",
          "type": "address"
        }
      ],
      "name": "balanceOf",
      "outputs": [
        {
          "internalType": "uint256",
          "name": "",
          "type": "uint256"
        }
      ],
      "stateMutability": "view",
      "type": "function"
    },
    {
      "inputs": [],
      "name": "baseExtension",
      "outputs": [
        {
          "internalType": "string",
          "name": "",
          "type": "string"
        }
      ],
      "stateMutability": "view",
      "type": "function"
    },
    {
      "inputs": [],
      "name": "cost",
      "outputs": [
        {
          "internalType": "uint256",
          "name": "",
          "type": "uint256"
        }
      ],
      "stateMutability": "view",
      "type": "function"
    },
    {
      "inputs": [],
      "name": "freeMintLimit",
      "outputs": [
        {
          "internalType": "uint256",
          "name": "",
          "type": "uint256"
        }
      ],
      "stateMutability": "view",
      "type": "function"
    },
    {
      "inputs": [
        {
          "internalType": "uint256",
          "name": "tokenId",
          "type": "uint256"
        }
      ],
      "name": "getApproved",
      "outputs": [
        {
          "internalType": "address",
          "name": "",
          "type": "address"
        }
      ],
      "stateMutability": "view",
      "type": "function"
    },
    {
      "inputs": [
        {
          "internalType": "address",
          "name": "owner",
          "type": "address"
        },
        {
          "internalType": "address",
          "name": "operator",
          "type": "address"
        }
      ],
      "name": "isApprovedForAll",
      "outputs": [
        {
          "internalType": "bool",
          "name": "",
          "type": "bool"
        }
      ],
      "stateMutability": "view",
      "type": "function"
    },
    {
      "inputs": [],
      "name": "limitPerWallet",
      "outputs": [
        {
          "internalType": "uint256",
          "name": "",
          "type": "uint256"
        }
      ],
      "stateMutability": "view",
      "type": "function"
    },
    {
      "inputs": [],
      "name": "maxMintAmount",
      "outputs": [
        {
          "internalType": "uint256",
          "name": "",
          "type": "uint256"
        }
      ],
      "stateMutability": "view",
      "type": "function"
    },
    {
      "inputs": [],
      "name": "maxSupply",
      "outputs": [
        {
          "internalType": "uint256",
          "name": "",
          "type": "uint256"
        }
      ],
      "stateMutability": "view",
      "type": "function"
    },
    {
      "inputs": [
        {
          "internalType": "uint256",
          "name": "_mintAmount",
          "type": "uint256"
        }
      ],
      "name": "mint",
      "outputs": [],
      "stateMutability": "payable",
      "type": "function"
    },
    {
      "inputs": [],
      "name": "name",
      "outputs": [
        {
          "internalType": "string",
          "name": "",
          "type": "string"
        }
      ],
      "stateMutability": "view",
      "type": "function"
    },
    {
      "inputs": [],
      "name": "notRevealedUri",
      "outputs": [
        {
          "internalType": "string",
          "name": "",
          "type": "string"
        }
      ],
      "stateMutability": "view",
      "type": "function"
    },
    {
      "inputs": [],
      "name": "owner",
      "outputs": [
        {
          "internalType": "address",
          "name": "",
          "type": "address"
        }
      ],
      "stateMutability": "view",
      "type": "function"
    },
    {
      "inputs": [
        {
          "internalType": "uint256",
          "name": "tokenId",
          "type": "uint256"
        }
      ],
      "name": "ownerOf",
      "outputs": [
        {
          "internalType": "address",
          "name": "",
          "type": "address"
        }
      ],
      "stateMutability": "view",
      "type": "function"
    },
    {
      "inputs": [
        {
          "internalType": "bool",
          "name": "_state",
          "type": "bool"
        }
      ],
      "name": "pause",
      "outputs": [],
      "stateMutability": "nonpayable",
      "type": "function"
    },
    {
      "inputs": [],
      "name": "paused",
      "outputs": [
        {
          "internalType": "bool",
          "name": "",
          "type": "bool"
        }
      ],
      "stateMutability": "view",
      "type": "function"
    },
    {
      "inputs": [],
      "name": "renounceOwnership",
      "outputs": [],
      "stateMutability": "nonpayable",
      "type": "function"
    },
    {
      "inputs": [],
      "name": "reveal",
      "outputs": [],
      "stateMutability": "nonpayable",
      "type": "function"
    },
    {
      "inputs": [],
      "name": "revealed",
      "outputs": [
        {
          "internalType": "bool",
          "name": "",
          "type": "bool"
        }
      ],
      "stateMutability": "view",
      "type": "function"
    },
    {
      "inputs": [
        {
          "internalType": "address",
          "name": "from",
          "type": "address"
        },
        {
          "internalType": "address",
          "name": "to",
          "type": "address"
        },
        {
          "internalType": "uint256",
          "name": "tokenId",
          "type": "uint256"
        }
      ],
      "name": "safeTransferFrom",
      "outputs": [],
      "stateMutability": "nonpayable",
      "type": "function"
    },
    {
      "inputs": [
        {
          "internalType": "address",
          "name": "from",
          "type": "address"
        },
        {
          "internalType": "address",
          "name": "to",
          "type": "address"
        },
        {
          "internalType": "uint256",
          "name": "tokenId",
          "type": "uint256"
        },
        {
          "internalType": "bytes",
          "name": "_data",
          "type": "bytes"
        }
      ],
      "name": "safeTransferFrom",
      "outputs": [],
      "stateMutability": "nonpayable",
      "type": "function"
    },
    {
      "inputs": [
        {
          "internalType": "address",
          "name": "operator",
          "type": "address"
        },
        {
          "internalType": "bool",
          "name": "approved",
          "type": "bool"
        }
      ],
      "name": "setApprovalForAll",
      "outputs": [],
      "stateMutability": "nonpayable",
      "type": "function"
    },
    {
      "inputs": [
        {
          "internalType": "string",
          "name": "_newBaseExtension",
          "type": "string"
        }
      ],
      "name": "setBaseExtension",
      "outputs": [],
      "stateMutability": "nonpayable",
      "type": "function"
    },
    {
      "inputs": [
        {
          "internalType": "string",
          "name": "_newBaseURI",
          "type": "string"
        }
      ],
      "name": "setBaseURI",
      "outputs": [],
      "stateMutability": "nonpayable",
      "type": "function"
    },
    {
      "inputs": [
        {
          "internalType": "uint256",
          "name": "_newCost",
          "type": "uint256"
        }
      ],
      "name": "setCost",
      "outputs": [],
      "stateMutability": "nonpayable",
      "type": "function"
    },
    {
      "inputs": [
        {
          "internalType": "string",
          "name": "_notRevealedURI",
          "type": "string"
        }
      ],
      "name": "setNotRevealedURI",
      "outputs": [],
      "stateMutability": "nonpayable",
      "type": "function"
    },
    {
      "inputs": [
        {
          "internalType": "uint256",
          "name": "_newmaxMintAmount",
          "type": "uint256"
        }
      ],
      "name": "setmaxMintAmount",
      "outputs": [],
      "stateMutability": "nonpayable",
      "type": "function"
    },
    {
      "inputs": [
        {
          "internalType": "bytes4",
          "name": "interfaceId",
          "type": "bytes4"
        }
      ],
      "name": "supportsInterface",
      "outputs": [
        {
          "internalType": "bool",
          "name": "",
          "type": "bool"
        }
      ],
      "stateMutability": "view",
      "type": "function"
    },
    {
      "inputs": [],
      "name": "symbol",
      "outputs": [
        {
          "internalType": "string",
          "name": "",
          "type": "string"
        }
      ],
      "stateMutability": "view",
      "type": "function"
    },
    {
      "inputs": [
        {
          "internalType": "uint256",
          "name": "index",
          "type": "uint256"
        }
      ],
      "name": "tokenByIndex",
      "outputs": [
        {
          "internalType": "uint256",
          "name": "",
          "type": "uint256"
        }
      ],
      "stateMutability": "view",
      "type": "function"
    },
    {
      "inputs": [
        {
          "internalType": "address",
          "name": "owner",
          "type": "address"
        },
        {
          "internalType": "uint256",
          "name": "index",
          "type": "uint256"
        }
      ],
      "name": "tokenOfOwnerByIndex",
      "outputs": [
        {
          "internalType": "uint256",
          "name": "",
          "type": "uint256"
        }
      ],
      "stateMutability": "view",
      "type": "function"
    },
    {
      "inputs": [
        {
          "internalType": "uint256",
          "name": "tokenId",
          "type": "uint256"
        }
      ],
      "name": "tokenURI",
      "outputs": [
        {
          "internalType": "string",
          "name": "",
          "type": "string"
        }
      ],
      "stateMutability": "view",
      "type": "function"
    },
    {
      "inputs": [],
      "name": "totalSupply",
      "outputs": [
        {
          "internalType": "uint256",
          "name": "",
          "type": "uint256"
        }
      ],
      "stateMutability": "view",
      "type": "function"
    },
    {
      "inputs": [
        {
          "internalType": "address",
          "name": "from",
          "type": "address"
        },
        {
          "internalType": "address",
          "name": "to",
          "type": "address"
        },
        {
          "internalType": "uint256",
          "name": "tokenId",
          "type": "uint256"
        }
      ],
      "name": "transferFrom",
      "outputs": [],
      "stateMutability": "nonpayable",
      "type": "function"
    },
    {
      "inputs": [
        {
          "internalType": "address",
          "name": "newOwner",
          "type": "address"
        }
      ],
      "name": "transferOwnership",
      "outputs": [],
      "stateMutability": "nonpayable",
      "type": "function"
    },
    {
      "inputs": [
        {
          "internalType": "address",
          "name": "_owner",
          "type": "address"
        }
      ],
      "name": "walletOfOwner",
      "outputs": [
        {
          "internalType": "uint256[]",
          "name": "",
          "type": "uint256[]"
        }
      ],
      "stateMutability": "view",
      "type": "function"
    },
    {
      "inputs": [],
      "name": "withdraw",
      "outputs": [],
      "stateMutability": "payable",
      "type": "function"
    }
  ],
  "bytecode": "0x60806040526040518060400160405280600581526020017f2e6a736f6e000000000000000000000000000000000000000000000000000000815250600c908051906020019062000051929190620003ac565b5066f5232269808000600d556122b8600e55610320600f55600f60105560016011556001601360006101000a81548160ff0219169083151502179055506000601360016101000a81548160ff021916908315150217905550348015620000b657600080fd5b5060405162004d6738038062004d678339818101604052810190620000dc9190620004ce565b83838160009080519060200190620000f6929190620003ac565b5080600190805190602001906200010f929190620003ac565b50505062000132620001266200015e60201b60201c565b6200016660201b60201c565b62000143826200022c60201b60201c565b6200015481620002d760201b60201c565b5050505062000791565b600033905090565b6000600a60009054906101000a900473ffffffffffffffffffffffffffffffffffffffff16905081600a60006101000a81548173ffffffffffffffffffffffffffffffffffffffff021916908373ffffffffffffffffffffffffffffffffffffffff1602179055508173ffffffffffffffffffffffffffffffffffffffff168173ffffffffffffffffffffffffffffffffffffffff167f8be0079c531659141344cd1fd0a4f28419497f9722a3daafe3b4186f6b6457e060405160405180910390a35050565b6200023c6200015e60201b60201c565b73ffffffffffffffffffffffffffffffffffffffff16620002626200038260201b60201c565b73ffffffffffffffffffffffffffffffffffffffff1614620002bb576040517f08c379a0000000000000000000000000000000000000000000000000000000008152600401620002b290620005c5565b60405180910390fd5b80600b9080519060200190620002d3929190620003ac565b5050565b620002e76200015e60201b60201c565b73ffffffffffffffffffffffffffffffffffffffff166200030d6200038260201b60201c565b73ffffffffffffffffffffffffffffffffffffffff161462000366576040517f08c379a00000000000000000000000000000000000000000000000000000000081526004016200035d90620005c5565b60405180910390fd5b80601290805190602001906200037e929190620003ac565b5050565b6000600a60009054906101000a900473ffffffffffffffffffffffffffffffffffffffff16905090565b828054620003ba906200068d565b90600052602060002090601f016020900481019282620003de57600085556200042a565b82601f10620003f957805160ff19168380011785556200042a565b828001600101855582156200042a579182015b82811115620004295782518255916020019190600101906200040c565b5b5090506200043991906200043d565b5090565b5b80821115620004585760008160009055506001016200043e565b5090565b6000620004736200046d8462000610565b620005e7565b9050828152602081018484840111156200048c57600080fd5b6200049984828562000657565b509392505050565b600082601f830112620004b357600080fd5b8151620004c58482602086016200045c565b91505092915050565b60008060008060808587031215620004e557600080fd5b600085015167ffffffffffffffff8111156200050057600080fd5b6200050e87828801620004a1565b945050602085015167ffffffffffffffff8111156200052c57600080fd5b6200053a87828801620004a1565b935050604085015167ffffffffffffffff8111156200055857600080fd5b6200056687828801620004a1565b925050606085015167ffffffffffffffff8111156200058457600080fd5b6200059287828801620004a1565b91505092959194509250565b6000620005ad60208362000646565b9150620005ba8262000768565b602082019050919050565b60006020820190508181036000830152620005e0816200059e565b9050919050565b6000620005f362000606565b9050620006018282620006c3565b919050565b6000604051905090565b600067ffffffffffffffff8211156200062e576200062d62000728565b5b620006398262000757565b9050602081019050919050565b600082825260208201905092915050565b60005b83811015620006775780820151818401526020810190506200065a565b8381111562000687576000848401525b50505050565b60006002820490506001821680620006a657607f821691505b60208210811415620006bd57620006bc620006f9565b5b50919050565b620006ce8262000757565b810181811067ffffffffffffffff82111715620006f057620006ef62000728565b5b80604052505050565b7f4e487b7100000000000000000000000000000000000000000000000000000000600052602260045260246000fd5b7f4e487b7100000000000000000000000000000000000000000000000000000000600052604160045260246000fd5b6000601f19601f8301169050919050565b7f4f776e61626c653a2063616c6c6572206973206e6f7420746865206f776e6572600082015250565b6145c680620007a16000396000f3fe6080604052600436106102255760003560e01c80635c975abb11610123578063a475b5dd116100ab578063d5abeb011161006f578063d5abeb01146107db578063da3ef23f14610806578063e985e9c51461082f578063f2c4ce1e1461086c578063f2fde38b1461089557610225565b8063a475b5dd14610708578063a620ce5a1461071f578063b88d4fde1461074a578063c668286214610773578063c87b56dd1461079e57610225565b80637f00c7a6116100f25780637f00c7a6146106445780638da5cb5b1461066d57806395d89b4114610698578063a0712d68146106c3578063a22cb465146106df57610225565b80635c975abb146105885780636352211e146105b357806370a08231146105f0578063715018a61461062d57610225565b8063239c70ae116101b1578063438b630011610175578063438b63001461049157806344a0d68a146104ce5780634f6ccce7146104f7578063518302271461053457806355f804b31461055f57610225565b8063239c70ae146103cd57806323b872dd146103f85780632f745c59146104215780633ccfd60b1461045e57806342842e0e1461046857610225565b8063081c8c44116101f8578063081c8c44146102f857806308346d8514610323578063095ea7b31461034e57806313faede61461037757806318160ddd146103a257610225565b806301ffc9a71461022a57806302329a291461026757806306fdde0314610290578063081812fc146102bb575b600080fd5b34801561023657600080fd5b50610251600480360381019061024c91906132a7565b6108be565b60405161025e91906138c2565b60405180910390f35b34801561027357600080fd5b5061028e6004803603810190610289919061327e565b610938565b005b34801561029c57600080fd5b506102a56109d1565b6040516102b291906138dd565b60405180910390f35b3480156102c757600080fd5b506102e260048036038101906102dd919061333a565b610a63565b6040516102ef9190613839565b60405180910390f35b34801561030457600080fd5b5061030d610ae8565b60405161031a91906138dd565b60405180910390f35b34801561032f57600080fd5b50610338610b76565b6040516103459190613b5f565b60405180910390f35b34801561035a57600080fd5b5061037560048036038101906103709190613242565b610b7c565b005b34801561038357600080fd5b5061038c610c94565b6040516103999190613b5f565b60405180910390f35b3480156103ae57600080fd5b506103b7610c9a565b6040516103c49190613b5f565b60405180910390f35b3480156103d957600080fd5b506103e2610ca7565b6040516103ef9190613b5f565b60405180910390f35b34801561040457600080fd5b5061041f600480360381019061041a919061313c565b610cad565b005b34801561042d57600080fd5b5061044860048036038101906104439190613242565b610d0d565b6040516104559190613b5f565b60405180910390f35b610466610db2565b005b34801561047457600080fd5b5061048f600480360381019061048a919061313c565b610eae565b005b34801561049d57600080fd5b506104b860048036038101906104b391906130d7565b610ece565b6040516104c591906138a0565b60405180910390f35b3480156104da57600080fd5b506104f560048036038101906104f0919061333a565b610fc8565b005b34801561050357600080fd5b5061051e6004803603810190610519919061333a565b61104e565b60405161052b9190613b5f565b60405180910390f35b34801561054057600080fd5b506105496110e5565b60405161055691906138c2565b60405180910390f35b34801561056b57600080fd5b50610586600480360381019061058191906132f9565b6110f8565b005b34801561059457600080fd5b5061059d61118e565b6040516105aa91906138c2565b60405180910390f35b3480156105bf57600080fd5b506105da60048036038101906105d5919061333a565b6111a1565b6040516105e79190613839565b60405180910390f35b3480156105fc57600080fd5b50610617600480360381019061061291906130d7565b611253565b6040516106249190613b5f565b60405180910390f35b34801561063957600080fd5b5061064261130b565b005b34801561065057600080fd5b5061066b6004803603810190610666919061333a565b611393565b005b34801561067957600080fd5b50610682611419565b60405161068f9190613839565b60405180910390f35b3480156106a457600080fd5b506106ad611443565b6040516106ba91906138dd565b60405180910390f35b6106dd60048036038101906106d8919061333a565b6114d5565b005b3480156106eb57600080fd5b5061070660048036038101906107019190613206565b611610565b005b34801561071457600080fd5b5061071d611626565b005b34801561072b57600080fd5b506107346116bf565b6040516107419190613b5f565b60405180910390f35b34801561075657600080fd5b50610771600480360381019061076c919061318b565b6116c5565b005b34801561077f57600080fd5b50610788611727565b60405161079591906138dd565b60405180910390f35b3480156107aa57600080fd5b506107c560048036038101906107c0919061333a565b6117b5565b6040516107d291906138dd565b60405180910390f35b3480156107e757600080fd5b506107f061190e565b6040516107fd9190613b5f565b60405180910390f35b34801561081257600080fd5b5061082d600480360381019061082891906132f9565b611914565b005b34801561083b57600080fd5b5061085660048036038101906108519190613100565b6119aa565b60405161086391906138c2565b60405180910390f35b34801561087857600080fd5b50610893600480360381019061088e91906132f9565b611a3e565b005b3480156108a157600080fd5b506108bc60048036038101906108b791906130d7565b611ad4565b005b60007f780e9d63000000000000000000000000000000000000000000000000000000007bffffffffffffffffffffffffffffffffffffffffffffffffffffffff1916827bffffffffffffffffffffffffffffffffffffffffffffffffffffffff19161480610931575061093082611bcc565b5b9050919050565b610940611cae565b73ffffffffffffffffffffffffffffffffffffffff1661095e611419565b73ffffffffffffffffffffffffffffffffffffffff16146109b4576040517f08c379a00000000000000000000000000000000000000000000000000000000081526004016109ab90613abf565b60405180910390fd5b80601360006101000a81548160ff02191690831515021790555050565b6060600080546109e090613e68565b80601f0160208091040260200160405190810160405280929190818152602001828054610a0c90613e68565b8015610a595780601f10610a2e57610100808354040283529160200191610a59565b820191906000526020600020905b815481529060010190602001808311610a3c57829003601f168201915b5050505050905090565b6000610a6e82611cb6565b610aad576040517f08c379a0000000000000000000000000000000000000000000000000000000008152600401610aa490613a9f565b60405180910390fd5b6004600083815260200190815260200160002060009054906101000a900473ffffffffffffffffffffffffffffffffffffffff169050919050565b60128054610af590613e68565b80601f0160208091040260200160405190810160405280929190818152602001828054610b2190613e68565b8015610b6e5780601f10610b4357610100808354040283529160200191610b6e565b820191906000526020600020905b815481529060010190602001808311610b5157829003601f168201915b505050505081565b600f5481565b6000610b87826111a1565b90508073ffffffffffffffffffffffffffffffffffffffff168373ffffffffffffffffffffffffffffffffffffffff161415610bf8576040517f08c379a0000000000000000000000000000000000000000000000000000000008152600401610bef90613aff565b60405180910390fd5b8073ffffffffffffffffffffffffffffffffffffffff16610c17611cae565b73ffffffffffffffffffffffffffffffffffffffff161480610c465750610c4581610c40611cae565b6119aa565b5b610c85576040517f08c379a0000000000000000000000000000000000000000000000000000000008152600401610c7c90613a1f565b60405180910390fd5b610c8f8383611d22565b505050565b600d5481565b6000600880549050905090565b60105481565b610cbe610cb8611cae565b82611ddb565b610cfd576040517f08c379a0000000000000000000000000000000000000000000000000000000008152600401610cf490613b1f565b60405180910390fd5b610d08838383611eb9565b505050565b6000610d1883611253565b8210610d59576040517f08c379a0000000000000000000000000000000000000000000000000000000008152600401610d50906138ff565b60405180910390fd5b600660008473ffffffffffffffffffffffffffffffffffffffff1673ffffffffffffffffffffffffffffffffffffffff168152602001908152602001600020600083815260200190815260200160002054905092915050565b610dba611cae565b73ffffffffffffffffffffffffffffffffffffffff16610dd8611419565b73ffffffffffffffffffffffffffffffffffffffff1614610e2e576040517f08c379a0000000000000000000000000000000000000000000000000000000008152600401610e2590613abf565b60405180910390fd5b6000610e38611419565b73ffffffffffffffffffffffffffffffffffffffff1647604051610e5b90613824565b60006040518083038185875af1925050503d8060008114610e98576040519150601f19603f3d011682016040523d82523d6000602084013e610e9d565b606091505b5050905080610eab57600080fd5b50565b610ec9838383604051806020016040528060008152506116c5565b505050565b60606000610edb83611253565b905060008167ffffffffffffffff811115610f1f577f4e487b7100000000000000000000000000000000000000000000000000000000600052604160045260246000fd5b604051908082528060200260200182016040528015610f4d5781602001602082028036833780820191505090505b50905060005b82811015610fbd57610f658582610d0d565b828281518110610f9e577f4e487b7100000000000000000000000000000000000000000000000000000000600052603260045260246000fd5b6020026020010181815250508080610fb590613ecb565b915050610f53565b508092505050919050565b610fd0611cae565b73ffffffffffffffffffffffffffffffffffffffff16610fee611419565b73ffffffffffffffffffffffffffffffffffffffff1614611044576040517f08c379a000000000000000000000000000000000000000000000000000000000815260040161103b90613abf565b60405180910390fd5b80600d8190555050565b6000611058610c9a565b8210611099576040517f08c379a000000000000000000000000000000000000000000000000000000000815260040161109090613b3f565b60405180910390fd5b600882815481106110d3577f4e487b7100000000000000000000000000000000000000000000000000000000600052603260045260246000fd5b90600052602060002001549050919050565b601360019054906101000a900460ff1681565b611100611cae565b73ffffffffffffffffffffffffffffffffffffffff1661111e611419565b73ffffffffffffffffffffffffffffffffffffffff1614611174576040517f08c379a000000000000000000000000000000000000000000000000000000000815260040161116b90613abf565b60405180910390fd5b80600b908051906020019061118a929190612efb565b5050565b601360009054906101000a900460ff1681565b6000806002600084815260200190815260200160002060009054906101000a900473ffffffffffffffffffffffffffffffffffffffff169050600073ffffffffffffffffffffffffffffffffffffffff168173ffffffffffffffffffffffffffffffffffffffff16141561124a576040517f08c379a000000000000000000000000000000000000000000000000000000000815260040161124190613a5f565b60405180910390fd5b80915050919050565b60008073ffffffffffffffffffffffffffffffffffffffff168273ffffffffffffffffffffffffffffffffffffffff1614156112c4576040517f08c379a00000000000000000000000000000000000000000000000000000000081526004016112bb90613a3f565b60405180910390fd5b600360008373ffffffffffffffffffffffffffffffffffffffff1673ffffffffffffffffffffffffffffffffffffffff168152602001908152602001600020549050919050565b611313611cae565b73ffffffffffffffffffffffffffffffffffffffff16611331611419565b73ffffffffffffffffffffffffffffffffffffffff1614611387576040517f08c379a000000000000000000000000000000000000000000000000000000000815260040161137e90613abf565b60405180910390fd5b6113916000612120565b565b61139b611cae565b73ffffffffffffffffffffffffffffffffffffffff166113b9611419565b73ffffffffffffffffffffffffffffffffffffffff161461140f576040517f08c379a000000000000000000000000000000000000000000000000000000000815260040161140690613abf565b60405180910390fd5b8060108190555050565b6000600a60009054906101000a900473ffffffffffffffffffffffffffffffffffffffff16905090565b60606001805461145290613e68565b80601f016020809104026020016040519081016040528092919081815260200182805461147e90613e68565b80156114cb5780601f106114a0576101008083540402835291602001916114cb565b820191906000526020600020905b8154815290600101906020018083116114ae57829003601f168201915b5050505050905090565b601360009054906101000a900460ff16156114ef57600080fd5b60006114f9610c9a565b90506000821161150857600080fd5b600061151333611253565b9050600f54821161155a57600f54838361152d9190613c9d565b111561153857600080fd5b601154811061154657600080fd5b60115483111561155557600080fd5b6115d4565b60105483111561156957600080fd5b600e5483836115789190613c9d565b111561158357600080fd5b82600d546115919190613d24565b3410156115d3576040517f08c379a00000000000000000000000000000000000000000000000000000000081526004016115ca9061399f565b60405180910390fd5b5b6000600190505b83811161160a576115f73382856115f29190613c9d565b6121e6565b808061160290613ecb565b9150506115db565b50505050565b61162261161b611cae565b8383612204565b5050565b61162e611cae565b73ffffffffffffffffffffffffffffffffffffffff1661164c611419565b73ffffffffffffffffffffffffffffffffffffffff16146116a2576040517f08c379a000000000000000000000000000000000000000000000000000000000815260040161169990613abf565b60405180910390fd5b6001601360016101000a81548160ff021916908315150217905550565b60115481565b6116d66116d0611cae565b83611ddb565b611715576040517f08c379a000000000000000000000000000000000000000000000000000000000815260040161170c90613b1f565b60405180910390fd5b61172184848484612371565b50505050565b600c805461173490613e68565b80601f016020809104026020016040519081016040528092919081815260200182805461176090613e68565b80156117ad5780601f10611782576101008083540402835291602001916117ad565b820191906000526020600020905b81548152906001019060200180831161179057829003601f168201915b505050505081565b60606117c082611cb6565b6117ff576040517f08c379a00000000000000000000000000000000000000000000000000000000081526004016117f690613adf565b60405180910390fd5b60001515601360019054906101000a900460ff16151514156118ad576012805461182890613e68565b80601f016020809104026020016040519081016040528092919081815260200182805461185490613e68565b80156118a15780601f10611876576101008083540402835291602001916118a1565b820191906000526020600020905b81548152906001019060200180831161188457829003601f168201915b50505050509050611909565b60006118b76123cd565b905060008151116118d75760405180602001604052806000815250611905565b806118e18461245f565b600c6040516020016118f5939291906137f3565b6040516020818303038152906040525b9150505b919050565b600e5481565b61191c611cae565b73ffffffffffffffffffffffffffffffffffffffff1661193a611419565b73ffffffffffffffffffffffffffffffffffffffff1614611990576040517f08c379a000000000000000000000000000000000000000000000000000000000815260040161198790613abf565b60405180910390fd5b80600c90805190602001906119a6929190612efb565b5050565b6000600560008473ffffffffffffffffffffffffffffffffffffffff1673ffffffffffffffffffffffffffffffffffffffff16815260200190815260200160002060008373ffffffffffffffffffffffffffffffffffffffff1673ffffffffffffffffffffffffffffffffffffffff16815260200190815260200160002060009054906101000a900460ff16905092915050565b611a46611cae565b73ffffffffffffffffffffffffffffffffffffffff16611a64611419565b73ffffffffffffffffffffffffffffffffffffffff1614611aba576040517f08c379a0000000000000000000000000000000000000000000000000000000008152600401611ab190613abf565b60405180910390fd5b8060129080519060200190611ad0929190612efb565b5050565b611adc611cae565b73ffffffffffffffffffffffffffffffffffffffff16611afa611419565b73ffffffffffffffffffffffffffffffffffffffff1614611b50576040517f08c379a0000000000000000000000000000000000000000000000000000000008152600401611b4790613abf565b60405180910390fd5b600073ffffffffffffffffffffffffffffffffffffffff168173ffffffffffffffffffffffffffffffffffffffff161415611bc0576040517f08c379a0000000000000000000000000000000000000000000000000000000008152600401611bb79061393f565b60405180910390fd5b611bc981612120565b50565b60007f80ac58cd000000000000000000000000000000000000000000000000000000007bffffffffffffffffffffffffffffffffffffffffffffffffffffffff1916827bffffffffffffffffffffffffffffffffffffffffffffffffffffffff19161480611c9757507f5b5e139f000000000000000000000000000000000000000000000000000000007bffffffffffffffffffffffffffffffffffffffffffffffffffffffff1916827bffffffffffffffffffffffffffffffffffffffffffffffffffffffff1916145b80611ca75750611ca68261260c565b5b9050919050565b600033905090565b60008073ffffffffffffffffffffffffffffffffffffffff166002600084815260200190815260200160002060009054906101000a900473ffffffffffffffffffffffffffffffffffffffff1673ffffffffffffffffffffffffffffffffffffffff1614159050919050565b816004600083815260200190815260200160002060006101000a81548173ffffffffffffffffffffffffffffffffffffffff021916908373ffffffffffffffffffffffffffffffffffffffff160217905550808273ffffffffffffffffffffffffffffffffffffffff16611d95836111a1565b73ffffffffffffffffffffffffffffffffffffffff167f8c5be1e5ebec7d5bd14f71427d1e84f3dd0314c0f7b2291e5b200ac8c7c3b92560405160405180910390a45050565b6000611de682611cb6565b611e25576040517f08c379a0000000000000000000000000000000000000000000000000000000008152600401611e1c906139ff565b60405180910390fd5b6000611e30836111a1565b90508073ffffffffffffffffffffffffffffffffffffffff168473ffffffffffffffffffffffffffffffffffffffff161480611e9f57508373ffffffffffffffffffffffffffffffffffffffff16611e8784610a63565b73ffffffffffffffffffffffffffffffffffffffff16145b80611eb05750611eaf81856119aa565b5b91505092915050565b8273ffffffffffffffffffffffffffffffffffffffff16611ed9826111a1565b73ffffffffffffffffffffffffffffffffffffffff1614611f2f576040517f08c379a0000000000000000000000000000000000000000000000000000000008152600401611f269061395f565b60405180910390fd5b600073ffffffffffffffffffffffffffffffffffffffff168273ffffffffffffffffffffffffffffffffffffffff161415611f9f576040517f08c379a0000000000000000000000000000000000000000000000000000000008152600401611f96906139bf565b60405180910390fd5b611faa838383612676565b611fb5600082611d22565b6001600360008573ffffffffffffffffffffffffffffffffffffffff1673ffffffffffffffffffffffffffffffffffffffff16815260200190815260200160002060008282546120059190613d7e565b925050819055506001600360008473ffffffffffffffffffffffffffffffffffffffff1673ffffffffffffffffffffffffffffffffffffffff168152602001908152602001600020600082825461205c9190613c9d565b92505081905550816002600083815260200190815260200160002060006101000a81548173ffffffffffffffffffffffffffffffffffffffff021916908373ffffffffffffffffffffffffffffffffffffffff160217905550808273ffffffffffffffffffffffffffffffffffffffff168473ffffffffffffffffffffffffffffffffffffffff167fddf252ad1be2c89b69c2b068fc378daa952ba7f163c4a11628f55a4df523b3ef60405160405180910390a461211b83838361278a565b505050565b6000600a60009054906101000a900473ffffffffffffffffffffffffffffffffffffffff16905081600a60006101000a81548173ffffffffffffffffffffffffffffffffffffffff021916908373ffffffffffffffffffffffffffffffffffffffff1602179055508173ffffffffffffffffffffffffffffffffffffffff168173ffffffffffffffffffffffffffffffffffffffff167f8be0079c531659141344cd1fd0a4f28419497f9722a3daafe3b4186f6b6457e060405160405180910390a35050565b61220082826040518060200160405280600081525061278f565b5050565b8173ffffffffffffffffffffffffffffffffffffffff168373ffffffffffffffffffffffffffffffffffffffff161415612273576040517f08c379a000000000000000000000000000000000000000000000000000000000815260040161226a906139df565b60405180910390fd5b80600560008573ffffffffffffffffffffffffffffffffffffffff1673ffffffffffffffffffffffffffffffffffffffff16815260200190815260200160002060008473ffffffffffffffffffffffffffffffffffffffff1673ffffffffffffffffffffffffffffffffffffffff16815260200190815260200160002060006101000a81548160ff0219169083151502179055508173ffffffffffffffffffffffffffffffffffffffff168373ffffffffffffffffffffffffffffffffffffffff167f17307eab39ab6107e8899845ad3d59bd9653f200f220920489ca2b5937696c318360405161236491906138c2565b60405180910390a3505050565b61237c848484611eb9565b612388848484846127ea565b6123c7576040517f08c379a00000000000000000000000000000000000000000000000000000000081526004016123be9061391f565b60405180910390fd5b50505050565b6060600b80546123dc90613e68565b80601f016020809104026020016040519081016040528092919081815260200182805461240890613e68565b80156124555780601f1061242a57610100808354040283529160200191612455565b820191906000526020600020905b81548152906001019060200180831161243857829003601f168201915b5050505050905090565b606060008214156124a7576040518060400160405280600181526020017f30000000000000000000000000000000000000000000000000000000000000008152509050612607565b600082905060005b600082146124d95780806124c290613ecb565b915050600a826124d29190613cf3565b91506124af565b60008167ffffffffffffffff81111561251b577f4e487b7100000000000000000000000000000000000000000000000000000000600052604160045260246000fd5b6040519080825280601f01601f19166020018201604052801561254d5781602001600182028036833780820191505090505b5090505b60008514612600576001826125669190613d7e565b9150600a856125759190613f14565b60306125819190613c9d565b60f81b8183815181106125bd577f4e487b7100000000000000000000000000000000000000000000000000000000600052603260045260246000fd5b60200101907effffffffffffffffffffffffffffffffffffffffffffffffffffffffffffff1916908160001a905350600a856125f99190613cf3565b9450612551565b8093505050505b919050565b60007f01ffc9a7000000000000000000000000000000000000000000000000000000007bffffffffffffffffffffffffffffffffffffffffffffffffffffffff1916827bffffffffffffffffffffffffffffffffffffffffffffffffffffffff1916149050919050565b612681838383612981565b600073ffffffffffffffffffffffffffffffffffffffff168373ffffffffffffffffffffffffffffffffffffffff1614156126c4576126bf81612986565b612703565b8173ffffffffffffffffffffffffffffffffffffffff168373ffffffffffffffffffffffffffffffffffffffff16146127025761270183826129cf565b5b5b600073ffffffffffffffffffffffffffffffffffffffff168273ffffffffffffffffffffffffffffffffffffffff1614156127465761274181612b3c565b612785565b8273ffffffffffffffffffffffffffffffffffffffff168273ffffffffffffffffffffffffffffffffffffffff1614612784576127838282612c7f565b5b5b505050565b505050565b6127998383612cfe565b6127a660008484846127ea565b6127e5576040517f08c379a00000000000000000000000000000000000000000000000000000000081526004016127dc9061391f565b60405180910390fd5b505050565b600061280b8473ffffffffffffffffffffffffffffffffffffffff16612ed8565b15612974578373ffffffffffffffffffffffffffffffffffffffff1663150b7a02612834611cae565b8786866040518563ffffffff1660e01b81526004016128569493929190613854565b602060405180830381600087803b15801561287057600080fd5b505af19250505080156128a157506040513d601f19601f8201168201806040525081019061289e91906132d0565b60015b612924573d80600081146128d1576040519150601f19603f3d011682016040523d82523d6000602084013e6128d6565b606091505b5060008151141561291c576040517f08c379a00000000000000000000000000000000000000000000000000000000081526004016129139061391f565b60405180910390fd5b805181602001fd5b63150b7a0260e01b7bffffffffffffffffffffffffffffffffffffffffffffffffffffffff1916817bffffffffffffffffffffffffffffffffffffffffffffffffffffffff191614915050612979565b600190505b949350505050565b505050565b6008805490506009600083815260200190815260200160002081905550600881908060018154018082558091505060019003906000526020600020016000909190919091505550565b600060016129dc84611253565b6129e69190613d7e565b9050600060076000848152602001908152602001600020549050818114612acb576000600660008673ffffffffffffffffffffffffffffffffffffffff1673ffffffffffffffffffffffffffffffffffffffff168152602001908152602001600020600084815260200190815260200160002054905080600660008773ffffffffffffffffffffffffffffffffffffffff1673ffffffffffffffffffffffffffffffffffffffff168152602001908152602001600020600084815260200190815260200160002081905550816007600083815260200190815260200160002081905550505b6007600084815260200190815260200160002060009055600660008573ffffffffffffffffffffffffffffffffffffffff1673ffffffffffffffffffffffffffffffffffffffff16815260200190815260200160002060008381526020019081526020016000206000905550505050565b60006001600880549050612b509190613d7e565b9050600060096000848152602001908152602001600020549050600060088381548110612ba6577f4e487b7100000000000000000000000000000000000000000000000000000000600052603260045260246000fd5b906000526020600020015490508060088381548110612bee577f4e487b7100000000000000000000000000000000000000000000000000000000600052603260045260246000fd5b906000526020600020018190555081600960008381526020019081526020016000208190555060096000858152602001908152602001600020600090556008805480612c63577f4e487b7100000000000000000000000000000000000000000000000000000000600052603160045260246000fd5b6001900381819060005260206000200160009055905550505050565b6000612c8a83611253565b905081600660008573ffffffffffffffffffffffffffffffffffffffff1673ffffffffffffffffffffffffffffffffffffffff168152602001908152602001600020600083815260200190815260200160002081905550806007600084815260200190815260200160002081905550505050565b600073ffffffffffffffffffffffffffffffffffffffff168273ffffffffffffffffffffffffffffffffffffffff161415612d6e576040517f08c379a0000000000000000000000000000000000000000000000000000000008152600401612d6590613a7f565b60405180910390fd5b612d7781611cb6565b15612db7576040517f08c379a0000000000000000000000000000000000000000000000000000000008152600401612dae9061397f565b60405180910390fd5b612dc360008383612676565b6001600360008473ffffffffffffffffffffffffffffffffffffffff1673ffffffffffffffffffffffffffffffffffffffff1681526020019081526020016000206000828254612e139190613c9d565b92505081905550816002600083815260200190815260200160002060006101000a81548173ffffffffffffffffffffffffffffffffffffffff021916908373ffffffffffffffffffffffffffffffffffffffff160217905550808273ffffffffffffffffffffffffffffffffffffffff16600073ffffffffffffffffffffffffffffffffffffffff167fddf252ad1be2c89b69c2b068fc378daa952ba7f163c4a11628f55a4df523b3ef60405160405180910390a4612ed46000838361278a565b5050565b6000808273ffffffffffffffffffffffffffffffffffffffff163b119050919050565b828054612f0790613e68565b90600052602060002090601f016020900481019282612f295760008555612f70565b82601f10612f4257805160ff1916838001178555612f70565b82800160010185558215612f70579182015b82811115612f6f578251825591602001919060010190612f54565b5b509050612f7d9190612f81565b5090565b5b80821115612f9a576000816000905550600101612f82565b5090565b6000612fb1612fac84613b9f565b613b7a565b905082815260208101848484011115612fc957600080fd5b612fd4848285613e26565b509392505050565b6000612fef612fea84613bd0565b613b7a565b90508281526020810184848401111561300757600080fd5b613012848285613e26565b509392505050565b60008135905061302981614534565b92915050565b60008135905061303e8161454b565b92915050565b60008135905061305381614562565b92915050565b60008151905061306881614562565b92915050565b600082601f83011261307f57600080fd5b813561308f848260208601612f9e565b91505092915050565b600082601f8301126130a957600080fd5b81356130b9848260208601612fdc565b91505092915050565b6000813590506130d181614579565b92915050565b6000602082840312156130e957600080fd5b60006130f78482850161301a565b91505092915050565b6000806040838503121561311357600080fd5b60006131218582860161301a565b92505060206131328582860161301a565b9150509250929050565b60008060006060848603121561315157600080fd5b600061315f8682870161301a565b93505060206131708682870161301a565b9250506040613181868287016130c2565b9150509250925092565b600080600080608085870312156131a157600080fd5b60006131af8782880161301a565b94505060206131c08782880161301a565b93505060406131d1878288016130c2565b925050606085013567ffffffffffffffff8111156131ee57600080fd5b6131fa8782880161306e565b91505092959194509250565b6000806040838503121561321957600080fd5b60006132278582860161301a565b92505060206132388582860161302f565b9150509250929050565b6000806040838503121561325557600080fd5b60006132638582860161301a565b9250506020613274858286016130c2565b9150509250929050565b60006020828403121561329057600080fd5b600061329e8482850161302f565b91505092915050565b6000602082840312156132b957600080fd5b60006132c784828501613044565b91505092915050565b6000602082840312156132e257600080fd5b60006132f084828501613059565b91505092915050565b60006020828403121561330b57600080fd5b600082013567ffffffffffffffff81111561332557600080fd5b61333184828501613098565b91505092915050565b60006020828403121561334c57600080fd5b600061335a848285016130c2565b91505092915050565b600061336f83836137d5565b60208301905092915050565b61338481613db2565b82525050565b600061339582613c26565b61339f8185613c54565b93506133aa83613c01565b8060005b838110156133db5781516133c28882613363565b97506133cd83613c47565b9250506001810190506133ae565b5085935050505092915050565b6133f181613dc4565b82525050565b600061340282613c31565b61340c8185613c65565b935061341c818560208601613e35565b61342581614001565b840191505092915050565b600061343b82613c3c565b6134458185613c81565b9350613455818560208601613e35565b61345e81614001565b840191505092915050565b600061347482613c3c565b61347e8185613c92565b935061348e818560208601613e35565b80840191505092915050565b600081546134a781613e68565b6134b18186613c92565b945060018216600081146134cc57600181146134dd57613510565b60ff19831686528186019350613510565b6134e685613c11565b60005b83811015613508578154818901526001820191506020810190506134e9565b838801955050505b50505092915050565b6000613526602b83613c81565b915061353182614012565b604082019050919050565b6000613549603283613c81565b915061355482614061565b604082019050919050565b600061356c602683613c81565b9150613577826140b0565b604082019050919050565b600061358f602583613c81565b915061359a826140ff565b604082019050919050565b60006135b2601c83613c81565b91506135bd8261414e565b602082019050919050565b60006135d5601083613c81565b91506135e082614177565b602082019050919050565b60006135f8602483613c81565b9150613603826141a0565b604082019050919050565b600061361b601983613c81565b9150613626826141ef565b602082019050919050565b600061363e602c83613c81565b915061364982614218565b604082019050919050565b6000613661603883613c81565b915061366c82614267565b604082019050919050565b6000613684602a83613c81565b915061368f826142b6565b604082019050919050565b60006136a7602983613c81565b91506136b282614305565b604082019050919050565b60006136ca602083613c81565b91506136d582614354565b602082019050919050565b60006136ed602c83613c81565b91506136f88261437d565b604082019050919050565b6000613710602083613c81565b915061371b826143cc565b602082019050919050565b6000613733602f83613c81565b915061373e826143f5565b604082019050919050565b6000613756602183613c81565b915061376182614444565b604082019050919050565b6000613779600083613c76565b915061378482614493565b600082019050919050565b600061379c603183613c81565b91506137a782614496565b604082019050919050565b60006137bf602c83613c81565b91506137ca826144e5565b604082019050919050565b6137de81613e1c565b82525050565b6137ed81613e1c565b82525050565b60006137ff8286613469565b915061380b8285613469565b9150613817828461349a565b9150819050949350505050565b600061382f8261376c565b9150819050919050565b600060208201905061384e600083018461337b565b92915050565b6000608082019050613869600083018761337b565b613876602083018661337b565b61388360408301856137e4565b818103606083015261389581846133f7565b905095945050505050565b600060208201905081810360008301526138ba818461338a565b905092915050565b60006020820190506138d760008301846133e8565b92915050565b600060208201905081810360008301526138f78184613430565b905092915050565b6000602082019050818103600083015261391881613519565b9050919050565b600060208201905081810360008301526139388161353c565b9050919050565b600060208201905081810360008301526139588161355f565b9050919050565b6000602082019050818103600083015261397881613582565b9050919050565b60006020820190508181036000830152613998816135a5565b9050919050565b600060208201905081810360008301526139b8816135c8565b9050919050565b600060208201905081810360008301526139d8816135eb565b9050919050565b600060208201905081810360008301526139f88161360e565b9050919050565b60006020820190508181036000830152613a1881613631565b9050919050565b60006020820190508181036000830152613a3881613654565b9050919050565b60006020820190508181036000830152613a5881613677565b9050919050565b60006020820190508181036000830152613a788161369a565b9050919050565b60006020820190508181036000830152613a98816136bd565b9050919050565b60006020820190508181036000830152613ab8816136e0565b9050919050565b60006020820190508181036000830152613ad881613703565b9050919050565b60006020820190508181036000830152613af881613726565b9050919050565b60006020820190508181036000830152613b1881613749565b9050919050565b60006020820190508181036000830152613b388161378f565b9050919050565b60006020820190508181036000830152613b58816137b2565b9050919050565b6000602082019050613b7460008301846137e4565b92915050565b6000613b84613b95565b9050613b908282613e9a565b919050565b6000604051905090565b600067ffffffffffffffff821115613bba57613bb9613fd2565b5b613bc382614001565b9050602081019050919050565b600067ffffffffffffffff821115613beb57613bea613fd2565b5b613bf482614001565b9050602081019050919050565b6000819050602082019050919050565b60008190508160005260206000209050919050565b600081519050919050565b600081519050919050565b600081519050919050565b6000602082019050919050565b600082825260208201905092915050565b600082825260208201905092915050565b600081905092915050565b600082825260208201905092915050565b600081905092915050565b6000613ca882613e1c565b9150613cb383613e1c565b9250827fffffffffffffffffffffffffffffffffffffffffffffffffffffffffffffffff03821115613ce857613ce7613f45565b5b828201905092915050565b6000613cfe82613e1c565b9150613d0983613e1c565b925082613d1957613d18613f74565b5b828204905092915050565b6000613d2f82613e1c565b9150613d3a83613e1c565b9250817fffffffffffffffffffffffffffffffffffffffffffffffffffffffffffffffff0483118215151615613d7357613d72613f45565b5b828202905092915050565b6000613d8982613e1c565b9150613d9483613e1c565b925082821015613da757613da6613f45565b5b828203905092915050565b6000613dbd82613dfc565b9050919050565b60008115159050919050565b60007fffffffff0000000000000000000000000000000000000000000000000000000082169050919050565b600073ffffffffffffffffffffffffffffffffffffffff82169050919050565b6000819050919050565b82818337600083830152505050565b60005b83811015613e53578082015181840152602081019050613e38565b83811115613e62576000848401525b50505050565b60006002820490506001821680613e8057607f821691505b60208210811415613e9457613e93613fa3565b5b50919050565b613ea382614001565b810181811067ffffffffffffffff82111715613ec257613ec1613fd2565b5b80604052505050565b6000613ed682613e1c565b91507fffffffffffffffffffffffffffffffffffffffffffffffffffffffffffffffff821415613f0957613f08613f45565b5b600182019050919050565b6000613f1f82613e1c565b9150613f2a83613e1c565b925082613f3a57613f39613f74565b5b828206905092915050565b7f4e487b7100000000000000000000000000000000000000000000000000000000600052601160045260246000fd5b7f4e487b7100000000000000000000000000000000000000000000000000000000600052601260045260246000fd5b7f4e487b7100000000000000000000000000000000000000000000000000000000600052602260045260246000fd5b7f4e487b7100000000000000000000000000000000000000000000000000000000600052604160045260246000fd5b6000601f19601f8301169050919050565b7f455243373231456e756d657261626c653a206f776e657220696e646578206f7560008201527f74206f6620626f756e6473000000000000000000000000000000000000000000602082015250565b7f4552433732313a207472616e7366657220746f206e6f6e20455243373231526560008201527f63656976657220696d706c656d656e7465720000000000000000000000000000602082015250565b7f4f776e61626c653a206e6577206f776e657220697320746865207a65726f206160008201527f6464726573730000000000000000000000000000000000000000000000000000602082015250565b7f4552433732313a207472616e736665722066726f6d20696e636f72726563742060008201527f6f776e6572000000000000000000000000000000000000000000000000000000602082015250565b7f4552433732313a20746f6b656e20616c7265616479206d696e74656400000000600082015250565b7f4e6f7420656e6f7567682066756e647300000000000000000000000000000000600082015250565b7f4552433732313a207472616e7366657220746f20746865207a65726f2061646460008201527f7265737300000000000000000000000000000000000000000000000000000000602082015250565b7f4552433732313a20617070726f766520746f2063616c6c657200000000000000600082015250565b7f4552433732313a206f70657261746f7220717565727920666f72206e6f6e657860008201527f697374656e7420746f6b656e0000000000000000000000000000000000000000602082015250565b7f4552433732313a20617070726f76652063616c6c6572206973206e6f74206f7760008201527f6e6572206e6f7220617070726f76656420666f7220616c6c0000000000000000602082015250565b7f4552433732313a2062616c616e636520717565727920666f7220746865207a6560008201527f726f206164647265737300000000000000000000000000000000000000000000602082015250565b7f4552433732313a206f776e657220717565727920666f72206e6f6e657869737460008201527f656e7420746f6b656e0000000000000000000000000000000000000000000000602082015250565b7f4552433732313a206d696e7420746f20746865207a65726f2061646472657373600082015250565b7f4552433732313a20617070726f76656420717565727920666f72206e6f6e657860008201527f697374656e7420746f6b656e0000000000000000000000000000000000000000602082015250565b7f4f776e61626c653a2063616c6c6572206973206e6f7420746865206f776e6572600082015250565b7f4552433732314d657461646174613a2055524920717565727920666f72206e6f60008201527f6e6578697374656e7420746f6b656e0000000000000000000000000000000000602082015250565b7f4552433732313a20617070726f76616c20746f2063757272656e74206f776e6560008201527f7200000000000000000000000000000000000000000000000000000000000000602082015250565b50565b7f4552433732313a207472616e736665722063616c6c6572206973206e6f74206f60008201527f776e6572206e6f7220617070726f766564000000000000000000000000000000602082015250565b7f455243373231456e756d657261626c653a20676c6f62616c20696e646578206f60008201527f7574206f6620626f756e64730000000000000000000000000000000000000000602082015250565b61453d81613db2565b811461454857600080fd5b50565b61455481613dc4565b811461455f57600080fd5b50565b61456b81613dd0565b811461457657600080fd5b50565b61458281613e1c565b811461458d57600080fd5b5056fea2646970667358221220ebfc5c560301b4f7fa94167fa3d1471bbce5fae05cd5e27d63356da2f697f3e564736f6c63430008040033",
  "linkReferences": {},
  "deployedLinkReferences": {}
}